:020000040800F2
:10000000D0060020910100085B1000085F0F000877
:1000100059100008830500080512000800000000C0
:100020000000000000000000000000005F10000859
:1000300085050008000000005D1000086110000840
:10004000AB010008AB010008AB010008AB010008E0
:10005000AB010008AB010008AB010008AB010008D0
:10006000AB010008AB010008AB010008AB010008C0
:10007000AB010008AB010008AB010008AB010008B0
:10008000AB010008AB010008AB010008AB010008A0
:10009000AB010008AB010008AB010008AB01000890
:1000A000AB010008AB010008AB010008AB01000880
:1000B000AB010008AB010008AB010008AB01000870
:1000C000AB010008AB010008AB010008AB01000860
:1000D000AB010008AB010008AB010008AB01000850
:1000E000AB010008AB010008AB01000800F002F80A
:1000F00000F03FF80AA090E8000C82448344AAF183
:100100000107DA4501D100F034F8AFF2090EBAE880
:100110000F0013F0010F18BFFB1A43F0010318473B
:10012000BC120000DC120000103A24BF78C878C16D
:10013000FAD8520724BF30C830C144BF04680C60ED
:10014000704700000023002400250026103A28BF35
:1001500078C1FBD8520728BF30C148BF0B60704739
:10016000642900F07180002070471FB51FBD10B5D5
:1001700010BD00F0CCF91146FFF7F7FF01F0CAF807
:1001800000F0EAF903B4FFF7F2FF03BC00F0F2F964
:100190000948804709480047FEE7FEE7FEE7FEE71B
:1001A000FEE7FEE7FEE7FEE7FEE7FEE70448054957
:1001B000054A064B70470000B5100008ED00000826
:1001C000D0000020D0060020D0020020D002002065
:1001D0000FB41CB5074B06AA7B44694600900598EE
:1001E00000F07DF90020694600F08CF91CBC5DF838
:1001F00014FB00002903000070B5044685690068FF
:10020000C10601D5302600E02026C00707D070BD0A
:10021000D4E9012130469047206A401C20626D1EBF
:10022000F6D570BD70B5044685690078C00707D162
:1002300070BDD4E9012120209047206A401C206233
:100240006D1EF6D570BD00002DE9F0410646002474
:1002500010687529314616A510D0AFF3008000282C
:1002600002DA404213A507E031688A0701D512A5DA
:1002700002E0490704D511A5012401E0AFF3008095
:1002800000210A2206F1240709E0B0FBF2FCB0FBD2
:10029000F2F302FB1C00303078541846491C002849
:1002A000F3D123462A463046BDE8F04100F0B9B804
:1002B000000000002D0000002B00000020000000C6
:1002C0002DE9F0474FF0000A89460446C0F820A007
:1002D0002046E1688847002876D0252806D0D4E952
:1002E00001219047206A401C2062F1E7E168204626
:1002F00000258847C4F81CA006460027C4F818A0AB
:100300002A2E09D0304600F08EFF38B304EB870860
:10031000303EC8F8186019E059F8041B204604EB79
:1003200087029161E1688847012F064618D1E0698C
:10033000002820DA25F020051DE0D8F8180000EB91
:10034000800006EB40003038C8F818002046E1680D
:100350008847064600F067FF0028EED1012F0AD03B
:100360002E2E08D12046E16888477F1C0646022FC2
:1003700045F02005C4DBA069002803DA404245F0BF
:100380000105A061E80701D025F01005B6B1A6F17E
:100390004100192802D8203645F400654A46314606
:1003A000204625604D46FFF7DBFE58B1012806D0F8
:1003B000ED1D25F0070000F1080989E704E005F1CB
:1003C000040985E730468AE7206ABDE8F0874FF0E8
:1003D000000200B5134694469646203922BFA0E895
:1003E0000C50A0E80C50B1F12001BFF4F7AF0907A1
:1003F00028BFA0E80C5048BF0CC05DF804EB890092
:1004000028BF40F8042B08BF704748BF20F8022BD4
:1004100011F0804F18BF00F8012B704770477047EC
:1004200070472DE9F0470D4699469246044600F183
:1004300024080168880604D5E06921F010012160D4
:1004400000E00120A84201DD471B00E00027A16970
:100450007A1902EB0900081AA0612078C00602D4BC
:100460002046FFF7C9FE002608E0D4E901211AF86A
:1004700006009047206A401C761C20624E45F4DB43
:100480002078C0060AD52046FFF7B6FE06E0D4E97C
:10049000012130209047206A401C2062381EA7F1BD
:1004A0000107F4DC07E0D4E9012118F805009047C2
:1004B000206A401C2062281EA5F10105F3DC2046BD
:1004C000FFF7B0FE2078000602D50220BDE8F087D5
:1004D0000120FBE701694A1C02610878704700B5FA
:1004E0008FB0CDE901310021059105497944CDE96D
:1004F000031011466846FFF7E3FE0FB000BD000091
:10050000E5FFFFFF0A6802F8010B0A6070477546B5
:1005100000F02CF8AE4605006946534620F007006F
:10052000854618B020B5FFF741FEBDE820404FF0EA
:1005300000064FF000074FF000084FF0000B21F0CD
:100540000701AC46ACE8C009ACE8C009ACE8C0099A
:10055000ACE8C0098D46704710B50446AFF3008083
:100560002046BDE81040FFF70DBE00000048704770
:100570006C00002001491820ABBEFEE726000200F7
:100580007047FEE77047000070B5044600F004F9BC
:100590000546601C02D004480078044400F0FCF8D2
:1005A000401BA042FAD370BD040000202DE9F84F93
:1005B000DFF8B891002409F1040A0AF1040B23467C
:1005C0000F270BF1040EC9E00125A5402A40AA42DD
:1005D0007DD1674ED1F804C0ACEB0608B44532D0EB
:1005E00014DCBCF1030F3AD009DCBCF1000F2AD0B7
:1005F000BCF1010F1CD0BCF1020F31D11DE0BCF1E8
:10060000110F17D0BCF1120F2AD119E0B8F5881FCD
:1006100019D006DCB8F5803F15D0B8F5801F1FD182
:1006200011E0B8F5001F0ED0B8F5041F18D10AE08C
:10063000CB6815E0CB681B1D12E0CB6808330FE0D8
:10064000CB680C330CE08B682BB1012B4FF0080307
:1006500003D0456104E0042302E0056100E00023CB
:10066000FF2A01D8064601E000F104064FEA84059E
:1006700001D9A5F12005D6F8008007FA05FC28EA83
:100680000C0803FA05F548EA0508C6F800804D682D
:10069000ED0062D5374DAE6946F00106AE61AD6939
:1006A00024F0030605F001050095334D06EB050C1B
:1006B000DCF80850A607360F07FA06F825EA080501
:1006C000DFF8B880404503D14FF0000817E044E060
:1006D000DFF8AC80404502D14FF001080FE0DFF8B1
:1006E000A480404502D14FF0020808E0DFF898806E
:1006F000404502D14FF0030801E04FF0040808FA2A
:1007000006F848EA0508CCF808804D68D9F800607A
:10071000ED034D4601D5164300E096432E604D682B
:10072000DAF80060AD03554601D5164300E0964364
:100730002E604D68DBF80060ED025D4601D5164382
:1007400000E096432E604D68DEF80060AD0275460D
:1007500001D5164300E096432E60641C0D682A46BE
:10076000E5407FF431AFBDE8F88F000000040140A0
:10077000000011100010024000000140000801407C
:10078000000C014000100140001401400AB1016159
:1007900070470904FBE700000148806870470000CB
:1007A000040000200248816802781144816070478B
:1007B00004000020074810B5016841F010010160F5
:1007C000032000F067F80F2000F006F800F024F88E
:1007D000002010BD0020024070B50D4D04464FF4BE
:1007E0007A712878B1FBF0F00A490968B1FBF0F0A2
:1007F00000F0BEFA48B9102C07D200222146501E44
:1008000000F028F800206C6070BD012070BD000071
:1008100004000020100000200C4808B5816941F058
:1008200001018161816901F001010091C16941F01B
:100830008051C161C06900F0805000900448416857
:1008400021F0E06141F08061416008BD001002408C
:1008500000000140F0B40E4B1B680C46C3F30223AA
:10086000C3F10705042D00D90425191D072901D25C
:10087000002300E0DB1E012606FA05F1491E214097
:1008800099409E40761E16403143F0BC00F0BBBC40
:100890000CED00E0064900F0070208684FF6FF0380
:1008A000184040EA0220034A1043086070470000E5
:1008B0000CED00E00000FA052DE9F0470F460500B9
:1008C00061D0434E306800F00700B84209D230686A
:1008D00020F0070038433060306800F00700B8426D
:1008E00051D128683B4C810712D5400703D5606879
:1008F00040F4E06060602878000703D5606840F449
:10090000605060606068A96820F0F0000843606093
:100910002878C00728D06868012810D021680228EC
:1009200010D0890700292EDA616821F00301014304
:100930006160FFF731FF804641F288390DE02168A0
:100940008903EFE78901EDE7FFF726FFA0EB080138
:10095000494502D90320BDE8F0876068696800F066
:100960000C00B0EB810FEFD1306800F00700B84207
:100970000BD9306820F0070038433060306800F051
:100980000700B84201D00120E5E72878400705D5E7
:100990006068E96820F4E060084360602878000738
:1009A00006D56068296920F4605040EAC1006060A3
:1009B00000F018F86168084AC1F30311515CC8409F
:1009C0000649086006480068FFF706FF0020C2E7F6
:1009D0000020024000100240CC130008100000204C
:1009E0000800002012A185B00FC98DE80F0014A0E7
:1009F000144A006804905168134801F00C03042B5A
:100A000010D0082B0ED1C1F38343C9031DF8030096
:100A10000AD5516804AAC1F34041515C0A4A5043C7
:100A2000B0FBF1F005B0704708494843FAE7000011
:100A300002030405060708090A0B0C0D0E0F10101F
:100A4000010200000010024000127A0000093D007F
:100A50002DE9F84F040070D02078C04DC00749D070
:100A60006868C0F38100012807D06868C0F381007E
:100A7000022809D16868C00306D52868800339D5E3
:100A800060680028E7D035E06068B0F5803F0BD0A3
:100A900010B1B0F5A02F11D0286820F48030286064
:100AA000286820F4802002E0286840F48030286024
:100AB000606890B1FFF770FE06460AE0286840F4CF
:100AC00080202860F0E700BFFFF766FE801B6428E7
:100AD00073D828688003F7D50CE0FFF75DFE064663
:100AE00005E000BFFFF758FE801B6428F0D8286897
:100AF0008003F7D420789A4E80074FF001094FF019
:100B0000000839D5686810F00C0F07D06868C0F38A
:100B10008100022809D16868C00306D428688007CC
:100B200014D52069012808D110E02069B0B1C6F8B9
:100B30000090FFF731FE074605E00AE1FFF72CFEC3
:100B4000C01B0228C4D828688007F7D528686169C7
:100B500020F0F80040EAC10028600DE0C6F80080EF
:100B6000FFF71AFE074604E0FFF716FEC01B022837
:100B700023D828688007F7D4207800072CD5794837
:100B8000A169D9B1C0F80090FFF706FE074604E05E
:100B9000FFF702FEC01B02280FD8686A8007F7D54E
:100BA00071484FF4FA510068B0FBF1F0009000BFBB
:100BB0000098411E0091FAD20EE080E0C0F800805B
:100BC000FFF7EAFD074604E0FFF7E6FDC01B022839
:100BD00075D8686A8007F7D42078400760D5E8693F
:100BE0000027C00008D4E86940F08050E861E86957
:100BF000012700F0805000905C480168C90513D4BB
:100C00000168834641F480710160FFF7C5FD8246AB
:100C100006E000BFFFF7C0FDA0EB0A0064284ED835
:100C2000DBF80000C005F5D5E06801280AD008B15E
:100C3000052813D0286A20F001002862286A20F0D5
:100C4000040002E0286A40F001002862E06841F2F6
:100C5000883B98B1FFF7A0FD82460BE0286A40F080
:100C600004002862EEE700BFFFF796FDA0EB0A0143
:100C700059455AD8286A8007F6D50CE0FFF78CFD55
:100C8000824605E0FFF788FDA0EB0A0159454CD8E4
:100C9000286A8007F6D41FB1E86920F08050E86127
:100CA000E06988B36968C1F38101022944D0022850
:100CB000C6F8608004D0FFF76FFD044638E034E0EA
:100CC000FFF76AFD074604E0FFF766FDC01B022838
:100CD0002BD828688001F7D4206AB0F5803F05D171
:100CE0006868A16820F4003008436860D4E908010E
:100CF0000843696821F4741108436860C6F860907D
:100D0000FFF74AFD044606E025E000BFFFF744FD7B
:100D1000001B022809D828688001F7D51BE000BF16
:100D2000FFF73AFD001B022802D90320BDE8F88F27
:100D300028688001F4D40EE00128F7D06868226AA0
:100D400000F48031914204D1616A00F4701088424D
:100D500001D00120EAE70020E8E70000001002408F
:100D60000000424280044242100000200070004017
:100D700010B5401EB0F1807F01D3012010BD4FF0AF
:100D8000E02460610F21601700F03DFA0020A061AF
:100D900007202061002010BD70B590F83C20012A8A
:100DA00026D0012480F83C40022280F83D200368D0
:100DB0005A689D6822F070060A6832435A600D4BEB
:100DC00002689A4208D0B2F1804F05D00A4B9A428D
:100DD00002D00A4B9A4204D1496825F08003194396
:100DE000916080F83D40002180F83C10084670BDBD
:100DF000022070BD002C01400004004000080040AB
:100E000010B5040003D094F83D0010B107E00120B4
:100E100010BD002084F83C00204600F01FF802209E
:100E200084F83D00211D206800F046F9012084F877
:100E3000460084F83E0084F83F0084F8400084F8BF
:100E4000410084F8420084F8430084F8440084F8A8
:100E5000450084F83D00002010BD000000B585B0BD
:100E60000021009101910291039100680F4988428D
:100E700019D10F48816941F400618161816901F4F0
:100E800000610491816941F00401816180696946D2
:100E900000F0040004904FF4807000900220029053
:100EA0000448FFF783FB05B000BD0000002C0140A3
:100EB000001002400008014090F83D10012901D0C7
:100EC00001207047022180F83D1000680B498842DC
:100ED00008D0B0F1804F05D00949884202D00949B5
:100EE000884204D1816801F00701062903D0016816
:100EF00041F001010160002070470000002C01401A
:100F0000000400400008004070B5044690F83C0022
:100F1000012812D0012584F83C50022084F83D00BD
:100F2000204600F009F901004FF0000007D084F8D6
:100F30003D5084F83C00012070BD022070BD216846
:100F4000CA6822F04002CA602168CA6822F480425E
:100F5000CA6084F83D5084F83C00002070BDFEE774
:100F60002DE9F04186B000241C48009401940294BD
:100F70000394816941F004018161816901F00401F8
:100F80000491816941F0080181618069144F00F08A
:100F9000080004900022FF213846FFF7F7FBDFF836
:100FA0004480002207214046FFF7F0FBFF20012587
:100FB0000226CDE90005CDE9024669463846FFF72D
:100FC000F5FA0720CDE90005CDE90246694640461D
:100FD000FFF7ECFA06B0BDE8F08100000010024017
:100FE00000080140000C014010B588B0142168468B
:100FF000FFF7EDF900241748059415490694C0E958
:1010000000144FF6FF71C0E902410461446184613C
:10101000FFF7F6FE08B172B6FEE7072000905020F9
:10102000CDE901040F20049069460A48FFF76CFFE0
:1010300008B172B6FEE7059405A906480694FFF7C5
:10104000ABFE002801D072B6FEE708B010BD00006C
:10105000002C014014000020FEE7FEE770477047B7
:10106000FFF7A0BB10B590B028216846FFF7AFF995
:1010700014210AA8FFF7ABF9022000900120049088
:1010800010200024059007946846FFF7E1FC08B1A2
:1010900072B6FEE70F20CDE90A040C940D940021EE
:1010A0000AA80E94FFF708FC002801D072B6FEE7EC
:1010B00010B010BD70470000F0B50268164B174C19
:1010C000174D4FF08047984205D0B84203D0A04258
:1010D00001D0A84203D122F070064A6832439842F8
:1010E00005D0B84203D0A04201D0A84203D122F4D7
:1010F0004074CA6822434C6922F080022243026095
:101100008A68C2620A688262984201D109690163F1
:1011100001214161F0BD0000002C014000040040AD
:101120000008004010B5846842EA032224F47F449A
:101130000A432243826010BD10B503689A6822F00A
:1011400070044A68224322F007040A6822439A6026
:101150004A6812F00F0F30D11211082A2DD2DFE8A1
:1011600002F02C2C2C2C0B2127040B69D1E9022135
:101170000068FFF7D7FF20E00A68052A10D0026850
:10118000136A146A24F001041462026894690969FC
:1011900024F0F00444EA01119161006803620CE05C
:1011A000012010BD0A698968006800F008F804E0B1
:1011B0000A698968006800F013F8002010BD10B5B6
:1011C000036A046A24F001040462846924F0F004D0
:1011D00044EA021423F00A020A438461026210BD49
:1011E00010B5036A23F0100303628369046A23F4D1
:1011F000704343EA023224F0A00343EA0111826102
:10120000016210BDFEE70907090E002804DB00F1AA
:10121000E02080F80014704700F00F0000F1E0209B
:1012200080F8141D704730380A2801D20120704719
:101230000020704710B50120FFF7A6F9012000F04B
:1012400099F8BDE81040022000F094B870B504464B
:101250000D460120FFF798F95DB1012D0BD0022D4D
:101260000BD0032D0BD1D434E0B2BDE8704000F0B8
:1012700081B88034F8E7C034F6E79434F4E770BD01
:1012800010B50220FFF780F9382000F073F806202F
:1012900000F070F8BDE810400C2000F06BB80000C2
:1012A00070B504460120FFF76FF9114D0122114678
:1012B0002846FFF76BFA002202212846FFF766FA5C
:1012C0000C4E0022FF213046FFF760FA0122214632
:1012D0003046FFF75BFA012204212846FFF756FA51
:1012E0002846BDE8704000220421FFF74FBA0000F5
:1012F000000C01400008014010B504460120FFF732
:1013000043F902E0FFF7CCFF641C20780028F9D1F4
:1013100010BD0000FFF74EFAFFF7A4FEFFF720FE16
:10132000FFF762FE0E48FFF7C7FD0D4C0020216855
:101330004862FFF7A5FFFFF77DFF0A4D2068426A6C
:10134000074809A148302A60FEF742FF00210846FD
:10135000FFF77CFF02484830FFF7CEFFEEE70000C2
:101360001400002000000020636F756E7465723DEC
:101370002533640070B504460220FFF705F9114DCE
:10138000002201212846FFF701FA00220221284607
:10139000FFF7FCF90C4E0022FF213046FFF7F6F96B
:1013A000012221463046FFF7F1F9012204212846A7
:1013B000FFF7ECF92846BDE8704000220421FFF752
:1013C000E5B90000000C01400008014000000000E9
:1013D000000000000102030406070809FC130008CE
:1013E000000000201400000028010008101400086C
:1013F00014000020BC0600004401000800000000AA
:101400000100000010000000000000000024F400B3
:04000005080000ED02
:00000001FF
